{
  "contractName": "Healthcare",
  "abi": [
    {
      "constant": true,
      "inputs": [
        {
          "internalType": "address",
          "name": "",
          "type": "address"
        }
      ],
      "name": "patients",
      "outputs": [
        {
          "internalType": "string",
          "name": "name",
          "type": "string"
        },
        {
          "internalType": "uint256",
          "name": "age",
          "type": "uint256"
        }
      ],
      "payable": false,
      "stateMutability": "view",
      "type": "function"
    },
    {
      "constant": false,
      "inputs": [
        {
          "internalType": "string",
          "name": "_name",
          "type": "string"
        },
        {
          "internalType": "uint256",
          "name": "_age",
          "type": "uint256"
        }
      ],
      "name": "addPatient",
      "outputs": [],
      "payable": false,
      "stateMutability": "nonpayable",
      "type": "function"
    }
  ],
  "bytecode": "0x608060405234801561001057600080fd5b506103db806100206000396000f3fe608060405234801561001057600080fd5b50600436106100365760003560e01c80630869cfbc1461003b578063a5b7d984146100ff575b600080fd5b61007d6004803603602081101561005157600080fd5b81019080803573ffffffffffffffffffffffffffffffffffffffff1690602001909291905050506101c4565b6040518080602001838152602001828103825284818151815260200191508051906020019080838360005b838110156100c35780820151818401526020810190506100a8565b50505050905090810190601f1680156100f05780820380516001836020036101000a031916815260200191505b50935050505060405180910390f35b6101c26004803603604081101561011557600080fd5b810190808035906020019064010000000081111561013257600080fd5b82018360208201111561014457600080fd5b8035906020019184600183028401116401000000008311171561016657600080fd5b91908080601f016020809104026020016040519081016040528093929190818152602001838380828437600081840152601f19601f82011690508083019250505050505050919291929080359060200190929190505050610280565b005b6000602052806000526040600020600091509050806000018054600181600116156101000203166002900480601f0160208091040260200160405190810160405280929190818152602001828054600181600116156101000203166002900480156102705780601f1061024557610100808354040283529160200191610270565b820191906000526020600020905b81548152906001019060200180831161025357829003601f168201915b5050505050908060010154905082565b6040518060400160405280838152602001828152506000803373ffffffffffffffffffffffffffffffffffffffff1673ffffffffffffffffffffffffffffffffffffffff16815260200190815260200160002060008201518160000190805190602001906102ef929190610301565b50602082015181600101559050505050565b828054600181600116156101000203166002900490600052602060002090601f016020900481019282601f1061034257805160ff1916838001178555610370565b82800160010185558215610370579182015b8281111561036f578251825591602001919060010190610354565b5b50905061037d9190610381565b5090565b6103a391905b8082111561039f576000816000905550600101610387565b5090565b9056fea265627a7a7231582060d94ee682f3080ff3b455e3333570243b3668190b951b8d02f2176409d9192964736f6c63430005100032",
  "source": "// SPDX-License-Identifier: MIT\r\n\r\npragma solidity ^0.5.16;\r\n\r\ncontract Healthcare {\r\n    struct Patient {\r\n        string name;\r\n        uint256 age;\r\n    \r\n    }\r\n\r\n    mapping(address => Patient) public patients;\r\n\r\n    function addPatient(string memory _name, uint256 _age) public {\r\n        patients[msg.sender] = Patient(_name, _age);\r\n    }\r\n}",
  "sourcePath": "D:\\VIVEK\\BlockChain\\contracts\\Healthcare.sol",
  "compiler": {
    "name": "solc",
    "version": "0.5.16+commit.9c3226ce.Emscripten.clang"
  },
  "schemaVersion": "3.4.16",
  "updatedAt": "2024-04-06T21:36:18.052Z",
  "networkType": "ethereum",
  "devdoc": {
    "methods": {}
  },
  "userdoc": {
    "methods": {}
  }
}